{"abi":[{"type":"constructor","inputs":[{"name":"_verifier","type":"address","internalType":"address"}],"stateMutability":"nonpayable"},{"type":"function","name":"createNote","inputs":[{"name":"commitment","type":"bytes32","internalType":"bytes32"}],"outputs":[],"stateMutability":"nonpayable"},{"type":"function","name":"merkleRoots","inputs":[{"name":"","type":"uint256","internalType":"uint256"}],"outputs":[{"name":"","type":"bytes32","internalType":"bytes32"}],"stateMutability":"view"},{"type":"function","name":"noirVerifier","inputs":[],"outputs":[{"name":"","type":"address","internalType":"contract INoirVerifier"}],"stateMutability":"view"},{"type":"function","name":"noteMetadata","inputs":[{"name":"","type":"bytes32","internalType":"bytes32"}],"outputs":[{"name":"commitment","type":"bytes32","internalType":"bytes32"},{"name":"timestamp","type":"uint256","internalType":"uint256"},{"name":"isNullified","type":"bool","internalType":"bool"}],"stateMutability":"view"},{"type":"function","name":"usedNullifiers","inputs":[{"name":"","type":"bytes32","internalType":"bytes32"}],"outputs":[{"name":"","type":"bool","internalType":"bool"}],"stateMutability":"view"},{"type":"function","name":"validateTransaction","inputs":[{"name":"nullifier","type":"bytes32","internalType":"bytes32"},{"name":"proof","type":"bytes","internalType":"bytes"},{"name":"publicInputs","type":"bytes32[]","internalType":"bytes32[]"}],"outputs":[],"stateMutability":"nonpayable"},{"type":"event","name":"NoteCreated","inputs":[{"name":"commitment","type":"bytes32","indexed":true,"internalType":"bytes32"}],"anonymous":false},{"type":"event","name":"TransactionValidated","inputs":[{"name":"nullifier","type":"bytes32","indexed":true,"internalType":"bytes32"}],"anonymous":false}],"bytecode":{"object":"0x608060405234801561000f575f5ffd5b50604051610b7b380380610b7b833981810160405281019061003191906100d4565b805f5f6101000a81548173ffffffffffffffffffffffffffffffffffffffff021916908373ffffffffffffffffffffffffffffffffffffffff160217905550506100ff565b5f5ffd5b5f73ffffffffffffffffffffffffffffffffffffffff82169050919050565b5f6100a38261007a565b9050919050565b6100b381610099565b81146100bd575f5ffd5b50565b5f815190506100ce816100aa565b92915050565b5f602082840312156100e9576100e8610076565b5b5f6100f6848285016100c0565b91505092915050565b610a6f8061010c5f395ff3fe608060405234801561000f575f5ffd5b5060043610610060575f3560e01c80631d8885cd14610064578063206137aa1461009657806337308de4146100c657806345341b71146100e457806371c5ecb11461010057806386b153ca14610130575b5f5ffd5b61007e6004803603810190610079919061048f565b61014c565b60405161008d939291906104fb565b60405180910390f35b6100b060048036038101906100ab919061048f565b61017e565b6040516100bd9190610530565b60405180910390f35b6100ce61019b565b6040516100db91906105c3565b60405180910390f35b6100fe60048036038101906100f9919061048f565b6101bf565b005b61011a60048036038101906101159190610606565b6102a8565b6040516101279190610631565b60405180910390f35b61014a60048036038101906101459190610700565b6102bd565b005b6003602052805f5260405f205f91509050805f015490806001015490806002015f9054906101000a900460ff16905083565b6001602052805f5260405f205f915054906101000a900460ff1681565b5f5f9054906101000a900473ffffffffffffffffffffffffffffffffffffffff1681565b5f5f1b60035f8381526020019081526020015f205f015414610216576040517f08c379a000000000000000000000000000000000000000000000000000000000815260040161020d906107eb565b60405180910390fd5b60405180606001604052808281526020014281526020015f151581525060035f8381526020019081526020015f205f820151815f0155602082015181600101556040820151816002015f6101000a81548160ff021916908315150217905550905050807fe497dffabbc523b423c0746a33cef7e1288abae4259f517d58268e983d23190660405160405180910390a250565b6002602052805f5260405f205f915090505481565b60015f8681526020019081526020015f205f9054906101000a900460ff161561031b576040517f08c379a000000000000000000000000000000000000000000000000000000000815260040161031290610853565b60405180910390fd5b5f5f9054906101000a900473ffffffffffffffffffffffffffffffffffffffff1673ffffffffffffffffffffffffffffffffffffffff1663ea50d0e4858585856040518563ffffffff1660e01b815260040161037a9493929190610943565b602060405180830381865afa158015610395573d5f5f3e3d5ffd5b505050506040513d601f19601f820116820180604052508101906103b991906109a6565b6103f8576040517f08c379a00000000000000000000000000000000000000000000000000000000081526004016103ef90610a1b565b60405180910390fd5b6001805f8781526020019081526020015f205f6101000a81548160ff021916908315150217905550847f170aaa3cfe0784c59c2f4b41be301737ea03ba11c07c32b1c87f1b1c70cfa53660405160405180910390a25050505050565b5f5ffd5b5f5ffd5b5f819050919050565b61046e8161045c565b8114610478575f5ffd5b50565b5f8135905061048981610465565b92915050565b5f602082840312156104a4576104a3610454565b5b5f6104b18482850161047b565b91505092915050565b6104c38161045c565b82525050565b5f819050919050565b6104db816104c9565b82525050565b5f8115159050919050565b6104f5816104e1565b82525050565b5f60608201905061050e5f8301866104ba565b61051b60208301856104d2565b61052860408301846104ec565b949350505050565b5f6020820190506105435f8301846104ec565b92915050565b5f73ffffffffffffffffffffffffffffffffffffffff82169050919050565b5f819050919050565b5f61058b61058661058184610549565b610568565b610549565b9050919050565b5f61059c82610571565b9050919050565b5f6105ad82610592565b9050919050565b6105bd816105a3565b82525050565b5f6020820190506105d65f8301846105b4565b92915050565b6105e5816104c9565b81146105ef575f5ffd5b50565b5f81359050610600816105dc565b92915050565b5f6020828403121561061b5761061a610454565b5b5f610628848285016105f2565b91505092915050565b5f6020820190506106445f8301846104ba565b92915050565b5f5ffd5b5f5ffd5b5f5ffd5b5f5f83601f84011261066b5761066a61064a565b5b8235905067ffffffffffffffff8111156106885761068761064e565b5b6020830191508360018202830111156106a4576106a3610652565b5b9250929050565b5f5f83601f8401126106c0576106bf61064a565b5b8235905067ffffffffffffffff8111156106dd576106dc61064e565b5b6020830191508360208202830111156106f9576106f8610652565b5b9250929050565b5f5f5f5f5f6060868803121561071957610718610454565b5b5f6107268882890161047b565b955050602086013567ffffffffffffffff81111561074757610746610458565b5b61075388828901610656565b9450945050604086013567ffffffffffffffff81111561077657610775610458565b5b610782888289016106ab565b92509250509295509295909350565b5f82825260208201905092915050565b7f4e6f746520616c726561647920657869737473000000000000000000000000005f82015250565b5f6107d5601383610791565b91506107e0826107a1565b602082019050919050565b5f6020820190508181035f830152610802816107c9565b9050919050565b7f4e756c6c696669657220616c72656164792075736564000000000000000000005f82015250565b5f61083d601683610791565b915061084882610809565b602082019050919050565b5f6020820190508181035f83015261086a81610831565b9050919050565b5f82825260208201905092915050565b828183375f83830152505050565b5f601f19601f8301169050919050565b5f6108aa8385610871565b93506108b7838584610881565b6108c08361088f565b840190509392505050565b5f82825260208201905092915050565b5f5ffd5b82818337505050565b5f6108f383856108cb565b93507f07ffffffffffffffffffffffffffffffffffffffffffffffffffffffffffffff831115610926576109256108db565b5b6020830292506109378385846108df565b82840190509392505050565b5f6040820190508181035f83015261095c81868861089f565b905081810360208301526109718184866108e8565b905095945050505050565b610985816104e1565b811461098f575f5ffd5b50565b5f815190506109a08161097c565b92915050565b5f602082840312156109bb576109ba610454565b5b5f6109c884828501610992565b91505092915050565b7f496e76616c69642070726f6f66000000000000000000000000000000000000005f82015250565b5f610a05600d83610791565b9150610a10826109d1565b602082019050919050565b5f6020820190508181035f830152610a32816109f9565b905091905056fea2646970667358221220c0379014d7d82430007090269a4a90a5b815a1c86aee04cf9f828b58b57c837664736f6c634300081d0033","linkReferences":{}},"methodIdentifiers":{"createNote(bytes32)":"45341b71","merkleRoots(uint256)":"71c5ecb1","noirVerifier()":"37308de4","noteMetadata(bytes32)":"1d8885cd","usedNullifiers(bytes32)":"206137aa","validateTransaction(bytes32,bytes,bytes32[])":"86b153ca"},"id":32}