{"abi":[{"type":"constructor","inputs":[{"name":"_verifier","type":"address","internalType":"address"},{"name":"_compliance","type":"address","internalType":"address"},{"name":"_agentRegistry","type":"address","internalType":"address"}],"stateMutability":"nonpayable"},{"type":"function","name":"agentRegistry","inputs":[],"outputs":[{"name":"","type":"address","internalType":"contract IObscuraAgentRegistry"}],"stateMutability":"view"},{"type":"function","name":"compliance","inputs":[],"outputs":[{"name":"","type":"address","internalType":"contract IComplianceContract"}],"stateMutability":"view"},{"type":"function","name":"createOrder","inputs":[{"name":"commitment","type":"bytes32","internalType":"bytes32"},{"name":"proof","type":"bytes","internalType":"bytes"},{"name":"metadata","type":"tuple","internalType":"struct ObscuraP2PMatchContract.PublicOrderMetadata","components":[{"name":"id","type":"uint256","internalType":"uint256"},{"name":"creatorHash","type":"bytes32","internalType":"bytes32"},{"name":"currencyType","type":"bytes32","internalType":"bytes32"},{"name":"regionCode","type":"bytes32","internalType":"bytes32"},{"name":"sizeCategory","type":"uint8","internalType":"uint8"},{"name":"active","type":"bool","internalType":"bool"}]}],"outputs":[],"stateMutability":"nonpayable"},{"type":"function","name":"matchOrders","inputs":[{"name":"order1Id","type":"uint256","internalType":"uint256"},{"name":"order2Id","type":"uint256","internalType":"uint256"},{"name":"matchProof","type":"bytes","internalType":"bytes"}],"outputs":[],"stateMutability":"nonpayable"},{"type":"function","name":"nextOrderId","inputs":[],"outputs":[{"name":"","type":"uint256","internalType":"uint256"}],"stateMutability":"view"},{"type":"function","name":"orderMetadata","inputs":[{"name":"","type":"uint256","internalType":"uint256"}],"outputs":[{"name":"id","type":"uint256","internalType":"uint256"},{"name":"creatorHash","type":"bytes32","internalType":"bytes32"},{"name":"currencyType","type":"bytes32","internalType":"bytes32"},{"name":"regionCode","type":"bytes32","internalType":"bytes32"},{"name":"sizeCategory","type":"uint8","internalType":"uint8"},{"name":"active","type":"bool","internalType":"bool"}],"stateMutability":"view"},{"type":"function","name":"verifier","inputs":[],"outputs":[{"name":"","type":"address","internalType":"contract INoirVerifier"}],"stateMutability":"view"},{"type":"event","name":"OrderCreated","inputs":[{"name":"orderId","type":"uint256","indexed":true,"internalType":"uint256"},{"name":"creatorHash","type":"bytes32","indexed":false,"internalType":"bytes32"}],"anonymous":false},{"type":"event","name":"OrderMatched","inputs":[{"name":"order1Id","type":"uint256","indexed":true,"internalType":"uint256"},{"name":"order2Id","type":"uint256","indexed":true,"internalType":"uint256"}],"anonymous":false}],"bytecode":{"object":"0x608060405234801561000f575f5ffd5b5060405161176438038061176483398181016040528101906100319190610156565b825f5f6101000a81548173ffffffffffffffffffffffffffffffffffffffff021916908373ffffffffffffffffffffffffffffffffffffffff1602179055508160015f6101000a81548173ffffffffffffffffffffffffffffffffffffffff021916908373ffffffffffffffffffffffffffffffffffffffff1602179055508060025f6101000a81548173ffffffffffffffffffffffffffffffffffffffff021916908373ffffffffffffffffffffffffffffffffffffffff1602179055505050506101a6565b5f5ffd5b5f73ffffffffffffffffffffffffffffffffffffffff82169050919050565b5f610125826100fc565b9050919050565b6101358161011b565b811461013f575f5ffd5b50565b5f815190506101508161012c565b92915050565b5f5f5f6060848603121561016d5761016c6100f8565b5b5f61017a86828701610142565b935050602061018b86828701610142565b925050604061019c86828701610142565b9150509250925092565b6115b1806101b35f395ff3fe608060405234801561000f575f5ffd5b506004361061007b575f3560e01c80636290865d116100595780636290865d146100d957806394bf21b1146100f75780639708bf2d1461012c578063ffd9681d146101485761007b565b80630d1cfcae1461007f5780632a58b3301461009d5780632b7ac3f3146100bb575b5f5ffd5b610087610164565b60405161009491906109e5565b60405180910390f35b6100a5610189565b6040516100b29190610a16565b60405180910390f35b6100c361018f565b6040516100d09190610a4f565b60405180910390f35b6100e16101b3565b6040516100ee9190610a88565b60405180910390f35b610111600480360381019061010c9190610ad3565b6101d8565b60405161012396959493929190610b4b565b60405180910390f35b61014660048036038101906101419190610c57565b610229565b005b610162600480360381019061015d9190610cc9565b6105b9565b005b60025f9054906101000a900473ffffffffffffffffffffffffffffffffffffffff1681565b60055481565b5f5f9054906101000a900473ffffffffffffffffffffffffffffffffffffffff1681565b60015f9054906101000a900473ffffffffffffffffffffffffffffffffffffffff1681565b6003602052805f5260405f205f91509050805f015490806001015490806002015490806003015490806004015f9054906101000a900460ff16908060040160019054906101000a900460ff16905086565b60025f9054906101000a900473ffffffffffffffffffffffffffffffffffffffff1673ffffffffffffffffffffffffffffffffffffffff16631ffbb064336040518263ffffffff1660e01b81526004016102839190610d5a565b602060405180830381865afa15801561029e573d5f5f3e3d5ffd5b505050506040513d601f19601f820116820180604052508101906102c29190610d9d565b610301576040517f08c379a00000000000000000000000000000000000000000000000000000000081526004016102f890610e22565b60405180910390fd5b60015f9054906101000a900473ffffffffffffffffffffffffffffffffffffffff1673ffffffffffffffffffffffffffffffffffffffff16633e354f4582602001356040518263ffffffff1660e01b815260040161035f9190610e40565b602060405180830381865afa15801561037a573d5f5f3e3d5ffd5b505050506040513d601f19601f8201168201806040525081019061039e9190610d9d565b6103dd576040517f08c379a00000000000000000000000000000000000000000000000000000000081526004016103d490610ea3565b60405180910390fd5b5f600167ffffffffffffffff8111156103f9576103f8610ec1565b5b6040519080825280602002602001820160405280156104275781602001602082028036833780820191505090505b50905084815f8151811061043e5761043d610eee565b5b6020026020010181815250505f5f9054906101000a900473ffffffffffffffffffffffffffffffffffffffff1673ffffffffffffffffffffffffffffffffffffffff1663ea50d0e48585846040518463ffffffff1660e01b81526004016104a79392919061102c565b602060405180830381865afa1580156104c2573d5f5f3e3d5ffd5b505050506040513d601f19601f820116820180604052508101906104e69190610d9d565b610525576040517f08c379a000000000000000000000000000000000000000000000000000000000815260040161051c906110ad565b60405180910390fd5b5f60055f815480929190610538906110f8565b9190505590508260035f8381526020019081526020015f20818161055c9190611435565b9050508560045f8381526020019081526020015f2081905550807f7ad26e581fdeb9308b5be128d939a85476918d2cf37835331b1aeeae08fe8e7884602001356040516105a99190610e40565b60405180910390a2505050505050565b60025f9054906101000a900473ffffffffffffffffffffffffffffffffffffffff1673ffffffffffffffffffffffffffffffffffffffff16631ffbb064336040518263ffffffff1660e01b81526004016106139190610d5a565b602060405180830381865afa15801561062e573d5f5f3e3d5ffd5b505050506040513d601f19601f820116820180604052508101906106529190610d9d565b610691576040517f08c379a000000000000000000000000000000000000000000000000000000000815260040161068890610e22565b60405180910390fd5b60035f8581526020019081526020015f2060040160019054906101000a900460ff166106f2576040517f08c379a00000000000000000000000000000000000000000000000000000000081526004016106e99061148d565b60405180910390fd5b60035f8481526020019081526020015f2060040160019054906101000a900460ff16610753576040517f08c379a000000000000000000000000000000000000000000000000000000000815260040161074a906114f5565b60405180910390fd5b5f600267ffffffffffffffff81111561076f5761076e610ec1565b5b60405190808252806020026020018201604052801561079d5781602001602082028036833780820191505090505b50905060045f8681526020019081526020015f2054815f815181106107c5576107c4610eee565b5b60200260200101818152505060045f8581526020019081526020015f2054816001815181106107f7576107f6610eee565b5b6020026020010181815250505f5f9054906101000a900473ffffffffffffffffffffffffffffffffffffffff1673ffffffffffffffffffffffffffffffffffffffff1663ea50d0e48484846040518463ffffffff1660e01b81526004016108609392919061102c565b602060405180830381865afa15801561087b573d5f5f3e3d5ffd5b505050506040513d601f19601f8201168201806040525081019061089f9190610d9d565b6108de576040517f08c379a00000000000000000000000000000000000000000000000000000000081526004016108d59061155d565b60405180910390fd5b5f60035f8781526020019081526020015f2060040160016101000a81548160ff0219169083151502179055505f60035f8681526020019081526020015f2060040160016101000a81548160ff02191690831515021790555083857f6adc2ec93a1a7ab0ae570b1912c9aafd71adebbc9d2b87e26647230a54f0d0b860405160405180910390a35050505050565b5f73ffffffffffffffffffffffffffffffffffffffff82169050919050565b5f819050919050565b5f6109ad6109a86109a38461096b565b61098a565b61096b565b9050919050565b5f6109be82610993565b9050919050565b5f6109cf826109b4565b9050919050565b6109df816109c5565b82525050565b5f6020820190506109f85f8301846109d6565b92915050565b5f819050919050565b610a10816109fe565b82525050565b5f602082019050610a295f830184610a07565b92915050565b5f610a39826109b4565b9050919050565b610a4981610a2f565b82525050565b5f602082019050610a625f830184610a40565b92915050565b5f610a72826109b4565b9050919050565b610a8281610a68565b82525050565b5f602082019050610a9b5f830184610a79565b92915050565b5f5ffd5b5f5ffd5b610ab2816109fe565b8114610abc575f5ffd5b50565b5f81359050610acd81610aa9565b92915050565b5f60208284031215610ae857610ae7610aa1565b5b5f610af584828501610abf565b91505092915050565b5f819050919050565b610b1081610afe565b82525050565b5f60ff82169050919050565b610b2b81610b16565b82525050565b5f8115159050919050565b610b4581610b31565b82525050565b5f60c082019050610b5e5f830189610a07565b610b6b6020830188610b07565b610b786040830187610b07565b610b856060830186610b07565b610b926080830185610b22565b610b9f60a0830184610b3c565b979650505050505050565b610bb381610afe565b8114610bbd575f5ffd5b50565b5f81359050610bce81610baa565b92915050565b5f5ffd5b5f5ffd5b5f5ffd5b5f5f83601f840112610bf557610bf4610bd4565b5b8235905067ffffffffffffffff811115610c1257610c11610bd8565b5b602083019150836001820283011115610c2e57610c2d610bdc565b5b9250929050565b5f5ffd5b5f60c08284031215610c4e57610c4d610c35565b5b81905092915050565b5f5f5f5f6101008587031215610c7057610c6f610aa1565b5b5f610c7d87828801610bc0565b945050602085013567ffffffffffffffff811115610c9e57610c9d610aa5565b5b610caa87828801610be0565b93509350506040610cbd87828801610c39565b91505092959194509250565b5f5f5f5f60608587031215610ce157610ce0610aa1565b5b5f610cee87828801610abf565b9450506020610cff87828801610abf565b935050604085013567ffffffffffffffff811115610d2057610d1f610aa5565b5b610d2c87828801610be0565b925092505092959194509250565b5f610d448261096b565b9050919050565b610d5481610d3a565b82525050565b5f602082019050610d6d5f830184610d4b565b92915050565b610d7c81610b31565b8114610d86575f5ffd5b50565b5f81519050610d9781610d73565b92915050565b5f60208284031215610db257610db1610aa1565b5b5f610dbf84828501610d89565b91505092915050565b5f82825260208201905092915050565b7f4e6f7420616e206167656e7400000000000000000000000000000000000000005f82015250565b5f610e0c600c83610dc8565b9150610e1782610dd8565b602082019050919050565b5f6020820190508181035f830152610e3981610e00565b9050919050565b5f602082019050610e535f830184610b07565b92915050565b7f4e6f7420766572696669656400000000000000000000000000000000000000005f82015250565b5f610e8d600c83610dc8565b9150610e9882610e59565b602082019050919050565b5f6020820190508181035f830152610eba81610e81565b9050919050565b7f4e487b71000000000000000000000000000000000000000000000000000000005f52604160045260245ffd5b7f4e487b71000000000000000000000000000000000000000000000000000000005f52603260045260245ffd5b5f82825260208201905092915050565b828183375f83830152505050565b5f601f19601f8301169050919050565b5f610f548385610f1b565b9350610f61838584610f2b565b610f6a83610f39565b840190509392505050565b5f81519050919050565b5f82825260208201905092915050565b5f819050602082019050919050565b610fa781610afe565b82525050565b5f610fb88383610f9e565b60208301905092915050565b5f602082019050919050565b5f610fda82610f75565b610fe48185610f7f565b9350610fef83610f8f565b805f5b8381101561101f5781516110068882610fad565b975061101183610fc4565b925050600181019050610ff2565b5085935050505092915050565b5f6040820190508181035f830152611045818587610f49565b905081810360208301526110598184610fd0565b9050949350505050565b7f496e76616c6964206f726465722070726f6f66000000000000000000000000005f82015250565b5f611097601383610dc8565b91506110a282611063565b602082019050919050565b5f6020820190508181035f8301526110c48161108b565b9050919050565b7f4e487b71000000000000000000000000000000000000000000000000000000005f52601160045260245ffd5b5f611102826109fe565b91507fffffffffffffffffffffffffffffffffffffffffffffffffffffffffffffffff8203611134576111336110cb565b5b600182019050919050565b5f813561114b81610aa9565b80915050919050565b5f815f1b9050919050565b5f7fffffffffffffffffffffffffffffffffffffffffffffffffffffffffffffffff61118a84611154565b9350801983169250808416831791505092915050565b5f6111ba6111b56111b0846109fe565b61098a565b6109fe565b9050919050565b5f819050919050565b6111d3826111a0565b6111e66111df826111c1565b835461115f565b8255505050565b5f81356111f981610baa565b80915050919050565b5f61120c82610afe565b9050919050565b5f815f1c9050919050565b5f61122882611213565b9050919050565b61123882611202565b61124b6112448261121e565b835461115f565b8255505050565b61125b81610b16565b8114611265575f5ffd5b50565b5f813561127481611252565b80915050919050565b5f60ff61128984611154565b9350801983169250808416831791505092915050565b5f6112b96112b46112af84610b16565b61098a565b610b16565b9050919050565b5f819050919050565b6112d28261129f565b6112e56112de826112c0565b835461127d565b8255505050565b5f81356112f881610d73565b80915050919050565b5f8160081b9050919050565b5f61ff0061131a84611301565b9350801983169250808416831791505092915050565b5f61133a82610b31565b9050919050565b5f819050919050565b61135382611330565b61136661135f82611341565b835461130d565b8255505050565b5f81015f83018061137d8161113f565b905061138981846111ca565b50505060018101602083018061139e816111ed565b90506113aa818461122f565b5050506002810160408301806113bf816111ed565b90506113cb818461122f565b5050506003810160608301806113e0816111ed565b90506113ec818461122f565b50505060048101608083018061140181611268565b905061140d81846112c9565b5050506004810160a0830180611422816112ec565b905061142e818461134a565b5050505050565b61143f828261136d565b5050565b7f4f726465722031206e6f742061637469766500000000000000000000000000005f82015250565b5f611477601283610dc8565b915061148282611443565b602082019050919050565b5f6020820190508181035f8301526114a48161146b565b9050919050565b7f4f726465722032206e6f742061637469766500000000000000000000000000005f82015250565b5f6114df601283610dc8565b91506114ea826114ab565b602082019050919050565b5f6020820190508181035f83015261150c816114d3565b9050919050565b7f4f7264657273206e6f7420636f6d70617469626c6500000000000000000000005f82015250565b5f611547601583610dc8565b915061155282611513565b602082019050919050565b5f6020820190508181035f8301526115748161153b565b905091905056fea2646970667358221220326a54bfa5920abe26ef62031fc4eabeb0de7d4cc1f3cda2162e470e7b488fa764736f6c634300081d0033","linkReferences":{}},"methodIdentifiers":{"agentRegistry()":"0d1cfcae","compliance()":"6290865d","createOrder(bytes32,bytes,(uint256,bytes32,bytes32,bytes32,uint8,bool))":"9708bf2d","matchOrders(uint256,uint256,bytes)":"ffd9681d","nextOrderId()":"2a58b330","orderMetadata(uint256)":"94bf21b1","verifier()":"2b7ac3f3"},"id":31}