{"abi":[{"type":"constructor","inputs":[{"name":"_usdt","type":"address","internalType":"address"},{"name":"_rollupProcessor","type":"address","internalType":"address"},{"name":"_privacyEngine","type":"address","internalType":"address"},{"name":"_verifier","type":"address","internalType":"address"},{"name":"_agentRegistry","type":"address","internalType":"address"}],"stateMutability":"nonpayable"},{"type":"function","name":"PRIVACY_ENGINE_ADDRESS","inputs":[],"outputs":[{"name":"","type":"address","internalType":"address"}],"stateMutability":"view"},{"type":"function","name":"ROLLUP_PROCESSOR_ADDRESS","inputs":[],"outputs":[{"name":"","type":"address","internalType":"address"}],"stateMutability":"view"},{"type":"function","name":"USDT_ADDRESS","inputs":[],"outputs":[{"name":"","type":"address","internalType":"address"}],"stateMutability":"view"},{"type":"function","name":"agentRegistry","inputs":[],"outputs":[{"name":"","type":"address","internalType":"contract IObscuraAgentRegistry"}],"stateMutability":"view"},{"type":"function","name":"createEscrow","inputs":[{"name":"dealHash","type":"bytes32","internalType":"bytes32"},{"name":"deadline","type":"uint256","internalType":"uint256"}],"outputs":[],"stateMutability":"nonpayable"},{"type":"function","name":"disputeEscrow","inputs":[{"name":"dealHash","type":"bytes32","internalType":"bytes32"}],"outputs":[],"stateMutability":"nonpayable"},{"type":"function","name":"escrowMetadata","inputs":[{"name":"","type":"bytes32","internalType":"bytes32"}],"outputs":[{"name":"dealHash","type":"bytes32","internalType":"bytes32"},{"name":"deadline","type":"uint256","internalType":"uint256"},{"name":"status","type":"uint8","internalType":"uint8"},{"name":"exists","type":"bool","internalType":"bool"}],"stateMutability":"view"},{"type":"function","name":"getBalance","inputs":[],"outputs":[{"name":"","type":"uint256","internalType":"uint256"}],"stateMutability":"view"},{"type":"function","name":"getRollupProcessor","inputs":[],"outputs":[{"name":"","type":"address","internalType":"address"}],"stateMutability":"view"},{"type":"function","name":"lockFunds","inputs":[{"name":"dealHash","type":"bytes32","internalType":"bytes32"},{"name":"amount","type":"uint256","internalType":"uint256"},{"name":"proof","type":"bytes","internalType":"bytes"},{"name":"publicInputs","type":"bytes32[]","internalType":"bytes32[]"}],"outputs":[],"stateMutability":"nonpayable"},{"type":"function","name":"releaseFunds","inputs":[{"name":"dealHash","type":"bytes32","internalType":"bytes32"},{"name":"recipient","type":"address","internalType":"address"},{"name":"amount","type":"uint256","internalType":"uint256"},{"name":"proof","type":"bytes","internalType":"bytes"},{"name":"publicInputs","type":"bytes32[]","internalType":"bytes32[]"}],"outputs":[],"stateMutability":"nonpayable"},{"type":"function","name":"verifier","inputs":[],"outputs":[{"name":"","type":"address","internalType":"contract INoirVerifier"}],"stateMutability":"view"},{"type":"event","name":"EscrowCreated","inputs":[{"name":"dealHash","type":"bytes32","indexed":true,"internalType":"bytes32"},{"name":"deadline","type":"uint256","indexed":false,"internalType":"uint256"}],"anonymous":false},{"type":"event","name":"EscrowDisputed","inputs":[{"name":"dealHash","type":"bytes32","indexed":true,"internalType":"bytes32"}],"anonymous":false},{"type":"event","name":"FundsLocked","inputs":[{"name":"dealHash","type":"bytes32","indexed":true,"internalType":"bytes32"}],"anonymous":false},{"type":"event","name":"FundsReleased","inputs":[{"name":"dealHash","type":"bytes32","indexed":true,"internalType":"bytes32"}],"anonymous":false}],"bytecode":{"object":"0x610100604052348015610010575f5ffd5b5060405161215f38038061215f833981810160405281019061003291906103cf565b5f73ffffffffffffffffffffffffffffffffffffffff168573ffffffffffffffffffffffffffffffffffffffff16036100a0576040517f08c379a0000000000000000000000000000000000000000000000000000000008152600401610097906104a0565b60405180910390fd5b5f73ffffffffffffffffffffffffffffffffffffffff168473ffffffffffffffffffffffffffffffffffffffff160361010e576040517f08c379a000000000000000000000000000000000000000000000000000000000815260040161010590610508565b60405180910390fd5b5f73ffffffffffffffffffffffffffffffffffffffff168373ffffffffffffffffffffffffffffffffffffffff160361017c576040517f08c379a000000000000000000000000000000000000000000000000000000000815260040161017390610570565b60405180910390fd5b5f73ffffffffffffffffffffffffffffffffffffffff168273ffffffffffffffffffffffffffffffffffffffff16036101ea576040517f08c379a00000000000000000000000000000000000000000000000000000000081526004016101e1906105d8565b60405180910390fd5b5f73ffffffffffffffffffffffffffffffffffffffff168173ffffffffffffffffffffffffffffffffffffffff1603610258576040517f08c379a000000000000000000000000000000000000000000000000000000000815260040161024f90610640565b60405180910390fd5b8473ffffffffffffffffffffffffffffffffffffffff1660808173ffffffffffffffffffffffffffffffffffffffff16815250508373ffffffffffffffffffffffffffffffffffffffff1660a08173ffffffffffffffffffffffffffffffffffffffff16815250508273ffffffffffffffffffffffffffffffffffffffff1660c08173ffffffffffffffffffffffffffffffffffffffff16815250508173ffffffffffffffffffffffffffffffffffffffff1660e08173ffffffffffffffffffffffffffffffffffffffff1681525050805f5f6101000a81548173ffffffffffffffffffffffffffffffffffffffff021916908373ffffffffffffffffffffffffffffffffffffffff160217905550505050505061065e565b5f5ffd5b5f73ffffffffffffffffffffffffffffffffffffffff82169050919050565b5f61039e82610375565b9050919050565b6103ae81610394565b81146103b8575f5ffd5b50565b5f815190506103c9816103a5565b92915050565b5f5f5f5f5f60a086880312156103e8576103e7610371565b5b5f6103f5888289016103bb565b9550506020610406888289016103bb565b9450506040610417888289016103bb565b9350506060610428888289016103bb565b9250506080610439888289016103bb565b9150509295509295909350565b5f82825260208201905092915050565b7f55534454206164647265737320726571756972656400000000000000000000005f82015250565b5f61048a601583610446565b915061049582610456565b602082019050919050565b5f6020820190508181035f8301526104b78161047e565b9050919050565b7f526f6c6c757050726f636573736f7220726571756972656400000000000000005f82015250565b5f6104f2601883610446565b91506104fd826104be565b602082019050919050565b5f6020820190508181035f83015261051f816104e6565b9050919050565b7f50726976616379456e67696e65207265717569726564000000000000000000005f82015250565b5f61055a601683610446565b915061056582610526565b602082019050919050565b5f6020820190508181035f8301526105878161054e565b9050919050565b7f56657269666965722072657175697265640000000000000000000000000000005f82015250565b5f6105c2601183610446565b91506105cd8261058e565b602082019050919050565b5f6020820190508181035f8301526105ef816105b6565b9050919050565b7f4167656e745265676973747279207265717569726564000000000000000000005f82015250565b5f61062a601683610446565b9150610635826105f6565b602082019050919050565b5f6020820190508181035f8301526106578161061e565b9050919050565b60805160a05160c05160e051611aa46106bb5f395f81816102ef015281816104ec015261088801525f610f4801525f8181610ada0152610f6c01525f8181610252015281816105e6015281816109650152610d440152611aa45ff3fe608060405234801561000f575f5ffd5b50600436106100b2575f3560e01c8063891f84001161006f578063891f84001461017b578063b02ba8ca14610199578063c1892058146101b5578063cfd24522146101d3578063e7eaea84146101ef578063f01b3f571461020d576100b2565b80630d1cfcae146100b657806312065fe0146100d45780632b7ac3f3146100f25780635797a9ff146101105780635be640851461012c578063645a7bfa14610148575b5f5ffd5b6100be61022b565b6040516100cb9190611008565b60405180910390f35b6100dc61024f565b6040516100e99190611039565b60405180910390f35b6100fa6102ed565b6040516101079190611072565b60405180910390f35b61012a600480360381019061012591906111e1565b610311565b005b61014660048036038101906101419190611298565b6106f5565b005b610162600480360381019061015d919061133b565b610a92565b60405161017294939291906113aa565b60405180910390f35b610183610ad7565b60405161019091906113fc565b60405180910390f35b6101b360048036038101906101ae9190611415565b610afe565b005b6101bd610d42565b6040516101ca91906113fc565b60405180910390f35b6101ed60048036038101906101e8919061133b565b610d66565b005b6101f7610f46565b60405161020491906113fc565b60405180910390f35b610215610f6a565b60405161022291906113fc565b60405180910390f35b5f5f9054906101000a900473ffffffffffffffffffffffffffffffffffffffff1681565b5f7f000000000000000000000000000000000000000000000000000000000000000073ffffffffffffffffffffffffffffffffffffffff166370a08231306040518263ffffffff1660e01b81526004016102a991906113fc565b602060405180830381865afa1580156102c4573d5f5f3e3d5ffd5b505050506040513d601f19601f820116820180604052508101906102e89190611467565b905090565b7f000000000000000000000000000000000000000000000000000000000000000081565b5f5f9054906101000a900473ffffffffffffffffffffffffffffffffffffffff1673ffffffffffffffffffffffffffffffffffffffff16631ffbb064336040518263ffffffff1660e01b815260040161036a91906113fc565b602060405180830381865afa158015610385573d5f5f3e3d5ffd5b505050506040513d601f19601f820116820180604052508101906103a991906114bc565b6103e8576040517f08c379a00000000000000000000000000000000000000000000000000000000081526004016103df90611541565b60405180910390fd5b5f60015f8981526020019081526020015f2090508060020160019054906101000a900460ff1661044d576040517f08c379a0000000000000000000000000000000000000000000000000000000008152600401610444906115a9565b60405180910390fd5b6001816002015f9054906101000a900460ff1660ff16146104a3576040517f08c379a000000000000000000000000000000000000000000000000000000000815260040161049a90611611565b60405180910390fd5b80600101544211156104ea576040517f08c379a00000000000000000000000000000000000000000000000000000000081526004016104e190611679565b60405180910390fd5b7f000000000000000000000000000000000000000000000000000000000000000073ffffffffffffffffffffffffffffffffffffffff1663ea50d0e4868686866040518563ffffffff1660e01b81526004016105499493929190611769565b602060405180830381865afa158015610564573d5f5f3e3d5ffd5b505050506040513d601f19601f8201168201806040525081019061058891906114bc565b6105c7576040517f08c379a00000000000000000000000000000000000000000000000000000000081526004016105be906117ec565b60405180910390fd5b6002816002015f6101000a81548160ff021916908360ff1602179055507f000000000000000000000000000000000000000000000000000000000000000073ffffffffffffffffffffffffffffffffffffffff1663a9059cbb88886040518363ffffffff1660e01b815260040161063f92919061180a565b6020604051808303815f875af115801561065b573d5f5f3e3d5ffd5b505050506040513d601f19601f8201168201806040525081019061067f91906114bc565b6106be576040517f08c379a00000000000000000000000000000000000000000000000000000000081526004016106b59061187b565b60405180910390fd5b877f8f8f95a049e629b79f711200473086f0587d1c605ce1887462a8bd2aac5ab7c060405160405180910390a25050505050505050565b5f5f9054906101000a900473ffffffffffffffffffffffffffffffffffffffff1673ffffffffffffffffffffffffffffffffffffffff16631ffbb064336040518263ffffffff1660e01b815260040161074e91906113fc565b602060405180830381865afa158015610769573d5f5f3e3d5ffd5b505050506040513d601f19601f8201168201806040525081019061078d91906114bc565b6107cc576040517f08c379a00000000000000000000000000000000000000000000000000000000081526004016107c390611541565b60405180910390fd5b5f60015f8881526020019081526020015f2090508060020160019054906101000a900460ff16610831576040517f08c379a0000000000000000000000000000000000000000000000000000000008152600401610828906115a9565b60405180910390fd5b5f816002015f9054906101000a900460ff1660ff1614610886576040517f08c379a000000000000000000000000000000000000000000000000000000000815260040161087d906118e3565b60405180910390fd5b7f000000000000000000000000000000000000000000000000000000000000000073ffffffffffffffffffffffffffffffffffffffff1663ea50d0e4868686866040518563ffffffff1660e01b81526004016108e59493929190611769565b602060405180830381865afa158015610900573d5f5f3e3d5ffd5b505050506040513d601f19601f8201168201806040525081019061092491906114bc565b610963576040517f08c379a000000000000000000000000000000000000000000000000000000000815260040161095a9061194b565b60405180910390fd5b7f000000000000000000000000000000000000000000000000000000000000000073ffffffffffffffffffffffffffffffffffffffff166323b872dd3330896040518463ffffffff1660e01b81526004016109c093929190611969565b6020604051808303815f875af11580156109dc573d5f5f3e3d5ffd5b505050506040513d601f19601f82011682018060405250810190610a0091906114bc565b610a3f576040517f08c379a0000000000000000000000000000000000000000000000000000000008152600401610a369061187b565b60405180910390fd5b6001816002015f6101000a81548160ff021916908360ff160217905550867f8d49cd64ec1d36c223c042433ffb54322b5b859781c7fad0a90103747c888f5260405160405180910390a250505050505050565b6001602052805f5260405f205f91509050805f015490806001015490806002015f9054906101000a900460ff16908060020160019054906101000a900460ff16905084565b5f7f0000000000000000000000000000000000000000000000000000000000000000905090565b5f5f9054906101000a900473ffffffffffffffffffffffffffffffffffffffff1673ffffffffffffffffffffffffffffffffffffffff16631ffbb064336040518263ffffffff1660e01b8152600401610b5791906113fc565b602060405180830381865afa158015610b72573d5f5f3e3d5ffd5b505050506040513d601f19601f82011682018060405250810190610b9691906114bc565b610bd5576040517f08c379a0000000000000000000000000000000000000000000000000000000008152600401610bcc90611541565b60405180910390fd5b60015f8381526020019081526020015f2060020160019054906101000a900460ff1615610c37576040517f08c379a0000000000000000000000000000000000000000000000000000000008152600401610c2e906119e8565b60405180910390fd5b428111610c79576040517f08c379a0000000000000000000000000000000000000000000000000000000008152600401610c7090611a50565b60405180910390fd5b60405180608001604052808381526020018281526020015f60ff1681526020016001151581525060015f8481526020019081526020015f205f820151815f0155602082015181600101556040820151816002015f6101000a81548160ff021916908360ff16021790555060608201518160020160016101000a81548160ff021916908315150217905550905050817f7e67c01ec788affdc2654bc24fd9aee81611f323d1d3cb69a92ebd9decfaffc882604051610d369190611039565b60405180910390a25050565b7f000000000000000000000000000000000000000000000000000000000000000081565b5f5f9054906101000a900473ffffffffffffffffffffffffffffffffffffffff1673ffffffffffffffffffffffffffffffffffffffff16631ffbb064336040518263ffffffff1660e01b8152600401610dbf91906113fc565b602060405180830381865afa158015610dda573d5f5f3e3d5ffd5b505050506040513d601f19601f82011682018060405250810190610dfe91906114bc565b610e3d576040517f08c379a0000000000000000000000000000000000000000000000000000000008152600401610e3490611541565b60405180910390fd5b5f60015f8381526020019081526020015f2090508060020160019054906101000a900460ff16610ea2576040517f08c379a0000000000000000000000000000000000000000000000000000000008152600401610e99906115a9565b60405180910390fd5b6001816002015f9054906101000a900460ff1660ff1614610ef8576040517f08c379a0000000000000000000000000000000000000000000000000000000008152600401610eef90611611565b60405180910390fd5b6003816002015f6101000a81548160ff021916908360ff160217905550817f550ba3f95fa658596451573e6d789afa3858d8a992cb121712d3df88cff5765c60405160405180910390a25050565b7f000000000000000000000000000000000000000000000000000000000000000081565b7f000000000000000000000000000000000000000000000000000000000000000081565b5f73ffffffffffffffffffffffffffffffffffffffff82169050919050565b5f819050919050565b5f610fd0610fcb610fc684610f8e565b610fad565b610f8e565b9050919050565b5f610fe182610fb6565b9050919050565b5f610ff282610fd7565b9050919050565b61100281610fe8565b82525050565b5f60208201905061101b5f830184610ff9565b92915050565b5f819050919050565b61103381611021565b82525050565b5f60208201905061104c5f83018461102a565b92915050565b5f61105c82610fd7565b9050919050565b61106c81611052565b82525050565b5f6020820190506110855f830184611063565b92915050565b5f5ffd5b5f5ffd5b5f819050919050565b6110a581611093565b81146110af575f5ffd5b50565b5f813590506110c08161109c565b92915050565b5f6110d082610f8e565b9050919050565b6110e0816110c6565b81146110ea575f5ffd5b50565b5f813590506110fb816110d7565b92915050565b61110a81611021565b8114611114575f5ffd5b50565b5f8135905061112581611101565b92915050565b5f5ffd5b5f5ffd5b5f5ffd5b5f5f83601f84011261114c5761114b61112b565b5b8235905067ffffffffffffffff8111156111695761116861112f565b5b60208301915083600182028301111561118557611184611133565b5b9250929050565b5f5f83601f8401126111a1576111a061112b565b5b8235905067ffffffffffffffff8111156111be576111bd61112f565b5b6020830191508360208202830111156111da576111d9611133565b5b9250929050565b5f5f5f5f5f5f5f60a0888a0312156111fc576111fb61108b565b5b5f6112098a828b016110b2565b975050602061121a8a828b016110ed565b965050604061122b8a828b01611117565b955050606088013567ffffffffffffffff81111561124c5761124b61108f565b5b6112588a828b01611137565b9450945050608088013567ffffffffffffffff81111561127b5761127a61108f565b5b6112878a828b0161118c565b925092505092959891949750929550565b5f5f5f5f5f5f608087890312156112b2576112b161108b565b5b5f6112bf89828a016110b2565b96505060206112d089828a01611117565b955050604087013567ffffffffffffffff8111156112f1576112f061108f565b5b6112fd89828a01611137565b9450945050606087013567ffffffffffffffff8111156113205761131f61108f565b5b61132c89828a0161118c565b92509250509295509295509295565b5f602082840312156113505761134f61108b565b5b5f61135d848285016110b2565b91505092915050565b61136f81611093565b82525050565b5f60ff82169050919050565b61138a81611375565b82525050565b5f8115159050919050565b6113a481611390565b82525050565b5f6080820190506113bd5f830187611366565b6113ca602083018661102a565b6113d76040830185611381565b6113e4606083018461139b565b95945050505050565b6113f6816110c6565b82525050565b5f60208201905061140f5f8301846113ed565b92915050565b5f5f6040838503121561142b5761142a61108b565b5b5f611438858286016110b2565b925050602061144985828601611117565b9150509250929050565b5f8151905061146181611101565b92915050565b5f6020828403121561147c5761147b61108b565b5b5f61148984828501611453565b91505092915050565b61149b81611390565b81146114a5575f5ffd5b50565b5f815190506114b681611492565b92915050565b5f602082840312156114d1576114d061108b565b5b5f6114de848285016114a8565b91505092915050565b5f82825260208201905092915050565b7f4e6f7420616e206167656e7400000000000000000000000000000000000000005f82015250565b5f61152b600c836114e7565b9150611536826114f7565b602082019050919050565b5f6020820190508181035f8301526115588161151f565b9050919050565b7f457363726f77206e6f7420666f756e64000000000000000000000000000000005f82015250565b5f6115936010836114e7565b915061159e8261155f565b602082019050919050565b5f6020820190508181035f8301526115c081611587565b9050919050565b7f4e6f74206c6f636b6564000000000000000000000000000000000000000000005f82015250565b5f6115fb600a836114e7565b9150611606826115c7565b602082019050919050565b5f6020820190508181035f830152611628816115ef565b9050919050565b7f457363726f7720657870697265640000000000000000000000000000000000005f82015250565b5f611663600e836114e7565b915061166e8261162f565b602082019050919050565b5f6020820190508181035f83015261169081611657565b9050919050565b5f82825260208201905092915050565b828183375f83830152505050565b5f601f19601f8301169050919050565b5f6116d08385611697565b93506116dd8385846116a7565b6116e6836116b5565b840190509392505050565b5f82825260208201905092915050565b5f5ffd5b82818337505050565b5f61171983856116f1565b93507f07ffffffffffffffffffffffffffffffffffffffffffffffffffffffffffffff83111561174c5761174b611701565b5b60208302925061175d838584611705565b82840190509392505050565b5f6040820190508181035f8301526117828186886116c5565b9050818103602083015261179781848661170e565b905095945050505050565b7f496e76616c69642072656c656173652070726f6f6600000000000000000000005f82015250565b5f6117d66015836114e7565b91506117e1826117a2565b602082019050919050565b5f6020820190508181035f830152611803816117ca565b9050919050565b5f60408201905061181d5f8301856113ed565b61182a602083018461102a565b9392505050565b7f55534454207472616e73666572206661696c65640000000000000000000000005f82015250565b5f6118656014836114e7565b915061187082611831565b602082019050919050565b5f6020820190508181035f83015261189281611859565b9050919050565b7f496e76616c6964207374617475730000000000000000000000000000000000005f82015250565b5f6118cd600e836114e7565b91506118d882611899565b602082019050919050565b5f6020820190508181035f8301526118fa816118c1565b9050919050565b7f496e76616c6964206c6f636b2070726f6f6600000000000000000000000000005f82015250565b5f6119356012836114e7565b915061194082611901565b602082019050919050565b5f6020820190508181035f83015261196281611929565b9050919050565b5f60608201905061197c5f8301866113ed565b61198960208301856113ed565b611996604083018461102a565b949350505050565b7f457363726f7720616c72656164792065786973747300000000000000000000005f82015250565b5f6119d26015836114e7565b91506119dd8261199e565b602082019050919050565b5f6020820190508181035f8301526119ff816119c6565b9050919050565b7f446561646c696e6520696e2070617374000000000000000000000000000000005f82015250565b5f611a3a6010836114e7565b9150611a4582611a06565b602082019050919050565b5f6020820190508181035f830152611a6781611a2e565b905091905056fea26469706673582212206902865c3b6db37d1d0235102f4657140de38a95ac17841bc489d480e8ef7f7764736f6c634300081d0033","linkReferences":{}},"methodIdentifiers":{"PRIVACY_ENGINE_ADDRESS()":"e7eaea84","ROLLUP_PROCESSOR_ADDRESS()":"f01b3f57","USDT_ADDRESS()":"c1892058","agentRegistry()":"0d1cfcae","createEscrow(bytes32,uint256)":"b02ba8ca","disputeEscrow(bytes32)":"cfd24522","escrowMetadata(bytes32)":"645a7bfa","getBalance()":"12065fe0","getRollupProcessor()":"891f8400","lockFunds(bytes32,uint256,bytes,bytes32[])":"5be64085","releaseFunds(bytes32,address,uint256,bytes,bytes32[])":"5797a9ff","verifier()":"2b7ac3f3"},"id":23}